{
  "_format": "hh-sol-artifact-1",
  "contractName": "NumberV2",
  "sourceName": "contracts/NumberV2.sol",
  "abi": [
    {
      "inputs": [
        {
          "internalType": "contract MinimalForwarderUpgradeable",
          "name": "forwarder",
          "type": "address"
        }
      ],
      "stateMutability": "nonpayable",
      "type": "constructor"
    },
    {
      "anonymous": false,
      "inputs": [
        {
          "indexed": false,
          "internalType": "uint8",
          "name": "version",
          "type": "uint8"
        }
      ],
      "name": "Initialized",
      "type": "event"
    },
    {
      "anonymous": false,
      "inputs": [
        {
          "indexed": false,
          "internalType": "uint256",
          "name": "newValue",
          "type": "uint256"
        }
      ],
      "name": "ValueChanged",
      "type": "event"
    },
    {
      "inputs": [],
      "name": "increment",
      "outputs": [],
      "stateMutability": "nonpayable",
      "type": "function"
    },
    {
      "inputs": [
        {
          "internalType": "uint256",
          "name": "newValue",
          "type": "uint256"
        }
      ],
      "name": "initialize",
      "outputs": [],
      "stateMutability": "nonpayable",
      "type": "function"
    },
    {
      "inputs": [
        {
          "internalType": "address",
          "name": "forwarder",
          "type": "address"
        }
      ],
      "name": "isTrustedForwarder",
      "outputs": [
        {
          "internalType": "bool",
          "name": "",
          "type": "bool"
        }
      ],
      "stateMutability": "view",
      "type": "function"
    },
    {
      "inputs": [],
      "name": "retrieve",
      "outputs": [
        {
          "internalType": "uint256",
          "name": "",
          "type": "uint256"
        }
      ],
      "stateMutability": "view",
      "type": "function"
    },
    {
      "inputs": [
        {
          "internalType": "uint256",
          "name": "newValue",
          "type": "uint256"
        }
      ],
      "name": "store",
      "outputs": [],
      "stateMutability": "nonpayable",
      "type": "function"
    },
    {
      "inputs": [],
      "name": "version",
      "outputs": [
        {
          "internalType": "string",
          "name": "",
          "type": "string"
        }
      ],
      "stateMutability": "pure",
      "type": "function"
    }
  ],
  "bytecode": "0x60a060405234801561001057600080fd5b50604051610840380380610840833981810160405281019061003291906100e5565b80808073ffffffffffffffffffffffffffffffffffffffff1660808173ffffffffffffffffffffffffffffffffffffffff1681525050505050610112565b600080fd5b600073ffffffffffffffffffffffffffffffffffffffff82169050919050565b60006100a082610075565b9050919050565b60006100b282610095565b9050919050565b6100c2816100a7565b81146100cd57600080fd5b50565b6000815190506100df816100b9565b92915050565b6000602082840312156100fb576100fa610070565b5b6000610109848285016100d0565b91505092915050565b60805161071361012d600039600061016001526107136000f3fe608060405234801561001057600080fd5b50600436106100625760003560e01c80632e64cec11461006757806354fd4d5014610085578063572b6c05146100a35780636057361d146100d3578063d09de08a146100ef578063fe4b84df146100f9575b600080fd5b61006f610115565b60405161007c919061038f565b60405180910390f35b61008d61011f565b60405161009a919061043a565b60405180910390f35b6100bd60048036038101906100b891906104bf565b61015c565b6040516100ca9190610507565b60405180910390f35b6100ed60048036038101906100e8919061054e565b6101b4565b005b6100f76101f5565b005b610113600480360381019061010e919061054e565b610213565b005b6000606554905090565b60606040518060400160405280600581526020017f322e302e30000000000000000000000000000000000000000000000000000000815250905090565b60007f000000000000000000000000000000000000000000000000000000000000000073ffffffffffffffffffffffffffffffffffffffff168273ffffffffffffffffffffffffffffffffffffffff16149050919050565b806065819055507f93fe6d397c74fdf1402a8b72e47b68512f0510d7b98a4bc4cbdf6ac7108b3c59816040516101ea919061038f565b60405180910390a150565b6102116001610202610115565b61020c91906105aa565b6101b4565b565b60008060019054906101000a900460ff161590508080156102445750600160008054906101000a900460ff1660ff16105b80610271575061025330610353565b1580156102705750600160008054906101000a900460ff1660ff16145b5b6102b0576040517f08c379a00000000000000000000000000000000000000000000000000000000081526004016102a790610650565b60405180910390fd5b60016000806101000a81548160ff021916908360ff16021790555080156102ed576001600060016101000a81548160ff0219169083151502179055505b6102f6826101b4565b801561034f5760008060016101000a81548160ff0219169083151502179055507f7f26b83ff96e1f2b6a682f133852f6798a09c465da95921460cefb3847402498600160405161034691906106c2565b60405180910390a15b5050565b6000808273ffffffffffffffffffffffffffffffffffffffff163b119050919050565b6000819050919050565b61038981610376565b82525050565b60006020820190506103a46000830184610380565b92915050565b600081519050919050565b600082825260208201905092915050565b60005b838110156103e45780820151818401526020810190506103c9565b60008484015250505050565b6000601f19601f8301169050919050565b600061040c826103aa565b61041681856103b5565b93506104268185602086016103c6565b61042f816103f0565b840191505092915050565b600060208201905081810360008301526104548184610401565b905092915050565b600080fd5b600073ffffffffffffffffffffffffffffffffffffffff82169050919050565b600061048c82610461565b9050919050565b61049c81610481565b81146104a757600080fd5b50565b6000813590506104b981610493565b92915050565b6000602082840312156104d5576104d461045c565b5b60006104e3848285016104aa565b91505092915050565b60008115159050919050565b610501816104ec565b82525050565b600060208201905061051c60008301846104f8565b92915050565b61052b81610376565b811461053657600080fd5b50565b60008135905061054881610522565b92915050565b6000602082840312156105645761056361045c565b5b600061057284828501610539565b91505092915050565b7f4e487b7100000000000000000000000000000000000000000000000000000000600052601160045260246000fd5b60006105b582610376565b91506105c083610376565b92508282019050808211156105d8576105d761057b565b5b92915050565b7f496e697469616c697a61626c653a20636f6e747261637420697320616c72656160008201527f647920696e697469616c697a6564000000000000000000000000000000000000602082015250565b600061063a602e836103b5565b9150610645826105de565b604082019050919050565b600060208201905081810360008301526106698161062d565b9050919050565b6000819050919050565b600060ff82169050919050565b6000819050919050565b60006106ac6106a76106a284610670565b610687565b61067a565b9050919050565b6106bc81610691565b82525050565b60006020820190506106d760008301846106b3565b9291505056fea2646970667358221220e8a55c26b1c7f3bfc0eaeee50278ec4939ab63999c3bea3530ea11737701a42a64736f6c63430008110033",
  "linkReferences": {},
  "deployedLinkReferences": {}
}